{
  "_format": "hh-sol-artifact-1",
  "contractName": "Articles",
  "sourceName": "contracts/Articles.sol",
  "abi": [
    {
      "inputs": [],
      "stateMutability": "nonpayable",
      "type": "constructor"
    },
    {
      "anonymous": false,
      "inputs": [
        {
          "indexed": true,
          "internalType": "address",
          "name": "account",
          "type": "address"
        },
        {
          "indexed": true,
          "internalType": "address",
          "name": "operator",
          "type": "address"
        },
        {
          "indexed": false,
          "internalType": "bool",
          "name": "approved",
          "type": "bool"
        }
      ],
      "name": "ApprovalForAll",
      "type": "event"
    },
    {
      "anonymous": false,
      "inputs": [
        {
          "indexed": true,
          "internalType": "address",
          "name": "operator",
          "type": "address"
        },
        {
          "indexed": true,
          "internalType": "address",
          "name": "from",
          "type": "address"
        },
        {
          "indexed": true,
          "internalType": "address",
          "name": "to",
          "type": "address"
        },
        {
          "indexed": false,
          "internalType": "uint256[]",
          "name": "ids",
          "type": "uint256[]"
        },
        {
          "indexed": false,
          "internalType": "uint256[]",
          "name": "values",
          "type": "uint256[]"
        }
      ],
      "name": "TransferBatch",
      "type": "event"
    },
    {
      "anonymous": false,
      "inputs": [
        {
          "indexed": true,
          "internalType": "address",
          "name": "operator",
          "type": "address"
        },
        {
          "indexed": true,
          "internalType": "address",
          "name": "from",
          "type": "address"
        },
        {
          "indexed": true,
          "internalType": "address",
          "name": "to",
          "type": "address"
        },
        {
          "indexed": false,
          "internalType": "uint256",
          "name": "id",
          "type": "uint256"
        },
        {
          "indexed": false,
          "internalType": "uint256",
          "name": "value",
          "type": "uint256"
        }
      ],
      "name": "TransferSingle",
      "type": "event"
    },
    {
      "anonymous": false,
      "inputs": [
        {
          "indexed": false,
          "internalType": "string",
          "name": "value",
          "type": "string"
        },
        {
          "indexed": true,
          "internalType": "uint256",
          "name": "id",
          "type": "uint256"
        }
      ],
      "name": "URI",
      "type": "event"
    },
    {
      "inputs": [
        {
          "internalType": "address",
          "name": "account",
          "type": "address"
        },
        {
          "internalType": "uint256",
          "name": "id",
          "type": "uint256"
        }
      ],
      "name": "balanceOf",
      "outputs": [
        {
          "internalType": "uint256",
          "name": "",
          "type": "uint256"
        }
      ],
      "stateMutability": "view",
      "type": "function"
    },
    {
      "inputs": [
        {
          "internalType": "address[]",
          "name": "accounts",
          "type": "address[]"
        },
        {
          "internalType": "uint256[]",
          "name": "ids",
          "type": "uint256[]"
        }
      ],
      "name": "balanceOfBatch",
      "outputs": [
        {
          "internalType": "uint256[]",
          "name": "",
          "type": "uint256[]"
        }
      ],
      "stateMutability": "view",
      "type": "function"
    },
    {
      "inputs": [
        {
          "internalType": "uint256",
          "name": "amount",
          "type": "uint256"
        },
        {
          "internalType": "string",
          "name": "_uri",
          "type": "string"
        }
      ],
      "name": "createCollectible",
      "outputs": [],
      "stateMutability": "nonpayable",
      "type": "function"
    },
    {
      "inputs": [
        {
          "internalType": "address",
          "name": "account",
          "type": "address"
        },
        {
          "internalType": "address",
          "name": "operator",
          "type": "address"
        }
      ],
      "name": "isApprovedForAll",
      "outputs": [
        {
          "internalType": "bool",
          "name": "",
          "type": "bool"
        }
      ],
      "stateMutability": "view",
      "type": "function"
    },
    {
      "inputs": [],
      "name": "lastId",
      "outputs": [
        {
          "internalType": "uint256",
          "name": "",
          "type": "uint256"
        }
      ],
      "stateMutability": "view",
      "type": "function"
    },
    {
      "inputs": [
        {
          "internalType": "address",
          "name": "from",
          "type": "address"
        },
        {
          "internalType": "address",
          "name": "to",
          "type": "address"
        },
        {
          "internalType": "uint256[]",
          "name": "ids",
          "type": "uint256[]"
        },
        {
          "internalType": "uint256[]",
          "name": "amounts",
          "type": "uint256[]"
        },
        {
          "internalType": "bytes",
          "name": "data",
          "type": "bytes"
        }
      ],
      "name": "safeBatchTransferFrom",
      "outputs": [],
      "stateMutability": "nonpayable",
      "type": "function"
    },
    {
      "inputs": [
        {
          "internalType": "address",
          "name": "from",
          "type": "address"
        },
        {
          "internalType": "address",
          "name": "to",
          "type": "address"
        },
        {
          "internalType": "uint256",
          "name": "id",
          "type": "uint256"
        },
        {
          "internalType": "uint256",
          "name": "amount",
          "type": "uint256"
        },
        {
          "internalType": "bytes",
          "name": "data",
          "type": "bytes"
        }
      ],
      "name": "safeTransferFrom",
      "outputs": [],
      "stateMutability": "nonpayable",
      "type": "function"
    },
    {
      "inputs": [
        {
          "internalType": "address",
          "name": "operator",
          "type": "address"
        },
        {
          "internalType": "bool",
          "name": "approved",
          "type": "bool"
        }
      ],
      "name": "setApprovalForAll",
      "outputs": [],
      "stateMutability": "nonpayable",
      "type": "function"
    },
    {
      "inputs": [
        {
          "internalType": "bytes4",
          "name": "interfaceId",
          "type": "bytes4"
        }
      ],
      "name": "supportsInterface",
      "outputs": [
        {
          "internalType": "bool",
          "name": "",
          "type": "bool"
        }
      ],
      "stateMutability": "view",
      "type": "function"
    },
    {
      "inputs": [
        {
          "internalType": "uint256",
          "name": "tokenId",
          "type": "uint256"
        }
      ],
      "name": "uri",
      "outputs": [
        {
          "internalType": "string",
          "name": "",
          "type": "string"
        }
      ],
      "stateMutability": "view",
      "type": "function"
    }
  ],
  "bytecode": "0x60806040523480156200001157600080fd5b506040518060400160405280600881526020017f41727469636c657300000000000000000000000000000000000000000000000081525062000059816200006860201b60201c565b50600060048190555062000199565b80600290805190602001906200008092919062000084565b5050565b828054620000929062000134565b90600052602060002090601f016020900481019282620000b6576000855562000102565b82601f10620000d157805160ff191683800117855562000102565b8280016001018555821562000102579182015b8281111562000101578251825591602001919060010190620000e4565b5b50905062000111919062000115565b5090565b5b808211156200013057600081600090555060010162000116565b5090565b600060028204905060018216806200014d57607f821691505b602082108114156200016457620001636200016a565b5b50919050565b7f4e487b7100000000000000000000000000000000000000000000000000000000600052602260045260246000fd5b612ac480620001a96000396000f3fe608060405234801561001057600080fd5b506004361061009d5760003560e01c80634e1273f4116100665780634e1273f41461016a578063a22cb4651461019a578063c1292cc3146101b6578063e985e9c5146101d4578063f242432a146102045761009d565b8062fdd58e146100a257806301ffc9a7146100d25780630e89341c146101025780632eb2c2d614610132578063418d4daa1461014e575b600080fd5b6100bc60048036038101906100b79190611b4a565b610220565b6040516100c9919061221e565b60405180910390f35b6100ec60048036038101906100e79190611bf2565b6102e9565b6040516100f99190612081565b60405180910390f35b61011c60048036038101906101179190611c44565b6103cb565b604051610129919061209c565b60405180910390f35b61014c600480360381019061014791906119c0565b610470565b005b61016860048036038101906101639190611c6d565b610511565b005b610184600480360381019061017f9190611b86565b610576565b6040516101919190612028565b60405180910390f35b6101b460048036038101906101af9190611b0e565b610727565b005b6101be6108a8565b6040516101cb919061221e565b60405180910390f35b6101ee60048036038101906101e99190611984565b6108ae565b6040516101fb9190612081565b60405180910390f35b61021e60048036038101906102199190611a7f565b610942565b005b60008073ffffffffffffffffffffffffffffffffffffffff168373ffffffffffffffffffffffffffffffffffffffff161415610291576040517f08c379a0000000000000000000000000000000000000000000000000000000008152600401610288906120fe565b60405180910390fd5b60008083815260200190815260200160002060008473ffffffffffffffffffffffffffffffffffffffff1673ffffffffffffffffffffffffffffffffffffffff16815260200190815260200160002054905092915050565b60007fd9b67a26000000000000000000000000000000000000000000000000000000007bffffffffffffffffffffffffffffffffffffffffffffffffffffffff1916827bffffffffffffffffffffffffffffffffffffffffffffffffffffffff191614806103b457507f0e89341c000000000000000000000000000000000000000000000000000000007bffffffffffffffffffffffffffffffffffffffffffffffffffffffff1916827bffffffffffffffffffffffffffffffffffffffffffffffffffffffff1916145b806103c457506103c3826109e3565b5b9050919050565b60606003600083815260200190815260200160002080546103eb906124be565b80601f0160208091040260200160405190810160405280929190818152602001828054610417906124be565b80156104645780601f1061043957610100808354040283529160200191610464565b820191906000526020600020905b81548152906001019060200180831161044757829003601f168201915b50505050509050919050565b610478610a4d565b73ffffffffffffffffffffffffffffffffffffffff168573ffffffffffffffffffffffffffffffffffffffff1614806104be57506104bd856104b8610a4d565b6108ae565b5b6104fd576040517f08c379a00000000000000000000000000000000000000000000000000000000081526004016104f49061215e565b60405180910390fd5b61050a8585858585610a55565b5050505050565b61052e336004548460405180602001604052806000815250610db5565b80600360006004548152602001908152602001600020908051906020019061055792919061167c565b5060016004600082825461056b91906123b2565b925050819055505050565b606081518351146105bc576040517f08c379a00000000000000000000000000000000000000000000000000000000081526004016105b3906121be565b60405180910390fd5b6000835167ffffffffffffffff8111156105ff577f4e487b7100000000000000000000000000000000000000000000000000000000600052604160045260246000fd5b60405190808252806020026020018201604052801561062d5781602001602082028036833780820191505090505b50905060005b845181101561071c576106c6858281518110610678577f4e487b7100000000000000000000000000000000000000000000000000000000600052603260045260246000fd5b60200260200101518583815181106106b9577f4e487b7100000000000000000000000000000000000000000000000000000000600052603260045260246000fd5b6020026020010151610220565b8282815181106106ff577f4e487b7100000000000000000000000000000000000000000000000000000000600052603260045260246000fd5b6020026020010181815250508061071590612521565b9050610633565b508091505092915050565b8173ffffffffffffffffffffffffffffffffffffffff16610746610a4d565b73ffffffffffffffffffffffffffffffffffffffff16141561079d576040517f08c379a00000000000000000000000000000000000000000000000000000000081526004016107949061219e565b60405180910390fd5b80600160006107aa610a4d565b73ffffffffffffffffffffffffffffffffffffffff1673ffffffffffffffffffffffffffffffffffffffff16815260200190815260200160002060008473ffffffffffffffffffffffffffffffffffffffff1673ffffffffffffffffffffffffffffffffffffffff16815260200190815260200160002060006101000a81548160ff0219169083151502179055508173ffffffffffffffffffffffffffffffffffffffff16610857610a4d565b73ffffffffffffffffffffffffffffffffffffffff167f17307eab39ab6107e8899845ad3d59bd9653f200f220920489ca2b5937696c318360405161089c9190612081565b60405180910390a35050565b60045481565b6000600160008473ffffffffffffffffffffffffffffffffffffffff1673ffffffffffffffffffffffffffffffffffffffff16815260200190815260200160002060008373ffffffffffffffffffffffffffffffffffffffff1673ffffffffffffffffffffffffffffffffffffffff16815260200190815260200160002060009054906101000a900460ff16905092915050565b61094a610a4d565b73ffffffffffffffffffffffffffffffffffffffff168573ffffffffffffffffffffffffffffffffffffffff161480610990575061098f8561098a610a4d565b6108ae565b5b6109cf576040517f08c379a00000000000000000000000000000000000000000000000000000000081526004016109c69061211e565b60405180910390fd5b6109dc8585858585610f4b565b5050505050565b60007f01ffc9a7000000000000000000000000000000000000000000000000000000007bffffffffffffffffffffffffffffffffffffffffffffffffffffffff1916827bffffffffffffffffffffffffffffffffffffffffffffffffffffffff1916149050919050565b600033905090565b8151835114610a99576040517f08c379a0000000000000000000000000000000000000000000000000000000008152600401610a90906121de565b60405180910390fd5b600073ffffffffffffffffffffffffffffffffffffffff168473ffffffffffffffffffffffffffffffffffffffff161415610b09576040517f08c379a0000000000000000000000000000000000000000000000000000000008152600401610b009061213e565b60405180910390fd5b6000610b13610a4d565b9050610b238187878787876111cd565b60005b8451811015610d20576000858281518110610b6a577f4e487b7100000000000000000000000000000000000000000000000000000000600052603260045260246000fd5b602002602001015190506000858381518110610baf577f4e487b7100000000000000000000000000000000000000000000000000000000600052603260045260246000fd5b60200260200101519050600080600084815260200190815260200160002060008b73ffffffffffffffffffffffffffffffffffffffff1673ffffffffffffffffffffffffffffffffffffffff16815260200190815260200160002054905081811015610c50576040517f08c379a0000000000000000000000000000000000000000000000000000000008152600401610c479061217e565b60405180910390fd5b81810360008085815260200190815260200160002060008c73ffffffffffffffffffffffffffffffffffffffff1673ffffffffffffffffffffffffffffffffffffffff168152602001908152602001600020819055508160008085815260200190815260200160002060008b73ffffffffffffffffffffffffffffffffffffffff1673ffffffffffffffffffffffffffffffffffffffff1681526020019081526020016000206000828254610d0591906123b2565b9250508190555050505080610d1990612521565b9050610b26565b508473ffffffffffffffffffffffffffffffffffffffff168673ffffffffffffffffffffffffffffffffffffffff168273ffffffffffffffffffffffffffffffffffffffff167f4a39dc06d4c0dbc64b70af90fd698a233a518aa5d07e595d983b8c0526c8f7fb8787604051610d9792919061204a565b60405180910390a4610dad8187878787876111d5565b505050505050565b600073ffffffffffffffffffffffffffffffffffffffff168473ffffffffffffffffffffffffffffffffffffffff161415610e25576040517f08c379a0000000000000000000000000000000000000000000000000000000008152600401610e1c906121fe565b60405180910390fd5b6000610e2f610a4d565b9050610e5081600087610e41886113bc565b610e4a886113bc565b876111cd565b8260008086815260200190815260200160002060008773ffffffffffffffffffffffffffffffffffffffff1673ffffffffffffffffffffffffffffffffffffffff1681526020019081526020016000206000828254610eaf91906123b2565b925050819055508473ffffffffffffffffffffffffffffffffffffffff16600073ffffffffffffffffffffffffffffffffffffffff168273ffffffffffffffffffffffffffffffffffffffff167fc3d58168c5ae7397731d063d5bbf3d657854427343f4c083240f7aacaa2d0f628787604051610f2d929190612239565b60405180910390a4610f4481600087878787611482565b5050505050565b600073ffffffffffffffffffffffffffffffffffffffff168473ffffffffffffffffffffffffffffffffffffffff161415610fbb576040517f08c379a0000000000000000000000000000000000000000000000000000000008152600401610fb29061213e565b60405180910390fd5b6000610fc5610a4d565b9050610fe5818787610fd6886113bc565b610fdf886113bc565b876111cd565b600080600086815260200190815260200160002060008873ffffffffffffffffffffffffffffffffffffffff1673ffffffffffffffffffffffffffffffffffffffff1681526020019081526020016000205490508381101561107c576040517f08c379a00000000000000000000000000000000000000000000000000000000081526004016110739061217e565b60405180910390fd5b83810360008087815260200190815260200160002060008973ffffffffffffffffffffffffffffffffffffffff1673ffffffffffffffffffffffffffffffffffffffff168152602001908152602001600020819055508360008087815260200190815260200160002060008873ffffffffffffffffffffffffffffffffffffffff1673ffffffffffffffffffffffffffffffffffffffff168152602001908152602001600020600082825461113191906123b2565b925050819055508573ffffffffffffffffffffffffffffffffffffffff168773ffffffffffffffffffffffffffffffffffffffff168373ffffffffffffffffffffffffffffffffffffffff167fc3d58168c5ae7397731d063d5bbf3d657854427343f4c083240f7aacaa2d0f6288886040516111ae929190612239565b60405180910390a46111c4828888888888611482565b50505050505050565b505050505050565b6111f48473ffffffffffffffffffffffffffffffffffffffff16611669565b156113b4578373ffffffffffffffffffffffffffffffffffffffff1663bc197c8187878686866040518663ffffffff1660e01b815260040161123a959493929190611f66565b602060405180830381600087803b15801561125457600080fd5b505af192505050801561128557506040513d601f19601f820116820180604052508101906112829190611c1b565b60015b61132b576112916125f7565b806308c379a014156112ee57506112a661299c565b806112b157506112f0565b806040517f08c379a00000000000000000000000000000000000000000000000000000000081526004016112e5919061209c565b60405180910390fd5b505b6040517f08c379a0000000000000000000000000000000000000000000000000000000008152600401611322906120be565b60405180910390fd5b63bc197c8160e01b7bffffffffffffffffffffffffffffffffffffffffffffffffffffffff1916817bffffffffffffffffffffffffffffffffffffffffffffffffffffffff1916146113b2576040517f08c379a00000000000000000000000000000000000000000000000000000000081526004016113a9906120de565b60405180910390fd5b505b505050505050565b60606000600167ffffffffffffffff811115611401577f4e487b7100000000000000000000000000000000000000000000000000000000600052604160045260246000fd5b60405190808252806020026020018201604052801561142f5781602001602082028036833780820191505090505b509050828160008151811061146d577f4e487b7100000000000000000000000000000000000000000000000000000000600052603260045260246000fd5b60200260200101818152505080915050919050565b6114a18473ffffffffffffffffffffffffffffffffffffffff16611669565b15611661578373ffffffffffffffffffffffffffffffffffffffff1663f23a6e6187878686866040518663ffffffff1660e01b81526004016114e7959493929190611fce565b602060405180830381600087803b15801561150157600080fd5b505af192505050801561153257506040513d601f19601f8201168201806040525081019061152f9190611c1b565b60015b6115d85761153e6125f7565b806308c379a0141561159b575061155361299c565b8061155e575061159d565b806040517f08c379a0000000000000000000000000000000000000000000000000000000008152600401611592919061209c565b60405180910390fd5b505b6040517f08c379a00000000000000000000000000000000000000000000000000000000081526004016115cf906120be565b60405180910390fd5b63f23a6e6160e01b7bffffffffffffffffffffffffffffffffffffffffffffffffffffffff1916817bffffffffffffffffffffffffffffffffffffffffffffffffffffffff19161461165f576040517f08c379a0000000000000000000000000000000000000000000000000000000008152600401611656906120de565b60405180910390fd5b505b505050505050565b600080823b905060008111915050919050565b828054611688906124be565b90600052602060002090601f0160209004810192826116aa57600085556116f1565b82601f106116c357805160ff19168380011785556116f1565b828001600101855582156116f1579182015b828111156116f05782518255916020019190600101906116d5565b5b5090506116fe9190611702565b5090565b5b8082111561171b576000816000905550600101611703565b5090565b600061173261172d84612287565b612262565b9050808382526020820190508285602086028201111561175157600080fd5b60005b8581101561178157816117678882611873565b845260208401935060208301925050600181019050611754565b5050509392505050565b600061179e611799846122b3565b612262565b905080838252602082019050828560208602820111156117bd57600080fd5b60005b858110156117ed57816117d3888261196f565b8452602084019350602083019250506001810190506117c0565b5050509392505050565b600061180a611805846122df565b612262565b90508281526020810184848401111561182257600080fd5b61182d84828561247c565b509392505050565b600061184861184384612310565b612262565b90508281526020810184848401111561186057600080fd5b61186b84828561247c565b509392505050565b60008135905061188281612a32565b92915050565b600082601f83011261189957600080fd5b81356118a984826020860161171f565b91505092915050565b600082601f8301126118c357600080fd5b81356118d384826020860161178b565b91505092915050565b6000813590506118eb81612a49565b92915050565b60008135905061190081612a60565b92915050565b60008151905061191581612a60565b92915050565b600082601f83011261192c57600080fd5b813561193c8482602086016117f7565b91505092915050565b600082601f83011261195657600080fd5b8135611966848260208601611835565b91505092915050565b60008135905061197e81612a77565b92915050565b6000806040838503121561199757600080fd5b60006119a585828601611873565b92505060206119b685828601611873565b9150509250929050565b600080600080600060a086880312156119d857600080fd5b60006119e688828901611873565b95505060206119f788828901611873565b945050604086013567ffffffffffffffff811115611a1457600080fd5b611a20888289016118b2565b935050606086013567ffffffffffffffff811115611a3d57600080fd5b611a49888289016118b2565b925050608086013567ffffffffffffffff811115611a6657600080fd5b611a728882890161191b565b9150509295509295909350565b600080600080600060a08688031215611a9757600080fd5b6000611aa588828901611873565b9550506020611ab688828901611873565b9450506040611ac78882890161196f565b9350506060611ad88882890161196f565b925050608086013567ffffffffffffffff811115611af557600080fd5b611b018882890161191b565b9150509295509295909350565b60008060408385031215611b2157600080fd5b6000611b2f85828601611873565b9250506020611b40858286016118dc565b9150509250929050565b60008060408385031215611b5d57600080fd5b6000611b6b85828601611873565b9250506020611b7c8582860161196f565b9150509250929050565b60008060408385031215611b9957600080fd5b600083013567ffffffffffffffff811115611bb357600080fd5b611bbf85828601611888565b925050602083013567ffffffffffffffff811115611bdc57600080fd5b611be8858286016118b2565b9150509250929050565b600060208284031215611c0457600080fd5b6000611c12848285016118f1565b91505092915050565b600060208284031215611c2d57600080fd5b6000611c3b84828501611906565b91505092915050565b600060208284031215611c5657600080fd5b6000611c648482850161196f565b91505092915050565b60008060408385031215611c8057600080fd5b6000611c8e8582860161196f565b925050602083013567ffffffffffffffff811115611cab57600080fd5b611cb785828601611945565b9150509250929050565b6000611ccd8383611f48565b60208301905092915050565b611ce281612408565b82525050565b6000611cf382612351565b611cfd818561237f565b9350611d0883612341565b8060005b83811015611d39578151611d208882611cc1565b9750611d2b83612372565b925050600181019050611d0c565b5085935050505092915050565b611d4f8161241a565b82525050565b6000611d608261235c565b611d6a8185612390565b9350611d7a81856020860161248b565b611d8381612619565b840191505092915050565b6000611d9982612367565b611da381856123a1565b9350611db381856020860161248b565b611dbc81612619565b840191505092915050565b6000611dd46034836123a1565b9150611ddf82612637565b604082019050919050565b6000611df76028836123a1565b9150611e0282612686565b604082019050919050565b6000611e1a602b836123a1565b9150611e25826126d5565b604082019050919050565b6000611e3d6029836123a1565b9150611e4882612724565b604082019050919050565b6000611e606025836123a1565b9150611e6b82612773565b604082019050919050565b6000611e836032836123a1565b9150611e8e826127c2565b604082019050919050565b6000611ea6602a836123a1565b9150611eb182612811565b604082019050919050565b6000611ec96029836123a1565b9150611ed482612860565b604082019050919050565b6000611eec6029836123a1565b9150611ef7826128af565b604082019050919050565b6000611f0f6028836123a1565b9150611f1a826128fe565b604082019050919050565b6000611f326021836123a1565b9150611f3d8261294d565b604082019050919050565b611f5181612472565b82525050565b611f6081612472565b82525050565b600060a082019050611f7b6000830188611cd9565b611f886020830187611cd9565b8181036040830152611f9a8186611ce8565b90508181036060830152611fae8185611ce8565b90508181036080830152611fc28184611d55565b90509695505050505050565b600060a082019050611fe36000830188611cd9565b611ff06020830187611cd9565b611ffd6040830186611f57565b61200a6060830185611f57565b818103608083015261201c8184611d55565b90509695505050505050565b600060208201905081810360008301526120428184611ce8565b905092915050565b600060408201905081810360008301526120648185611ce8565b905081810360208301526120788184611ce8565b90509392505050565b60006020820190506120966000830184611d46565b92915050565b600060208201905081810360008301526120b68184611d8e565b905092915050565b600060208201905081810360008301526120d781611dc7565b9050919050565b600060208201905081810360008301526120f781611dea565b9050919050565b6000602082019050818103600083015261211781611e0d565b9050919050565b6000602082019050818103600083015261213781611e30565b9050919050565b6000602082019050818103600083015261215781611e53565b9050919050565b6000602082019050818103600083015261217781611e76565b9050919050565b6000602082019050818103600083015261219781611e99565b9050919050565b600060208201905081810360008301526121b781611ebc565b9050919050565b600060208201905081810360008301526121d781611edf565b9050919050565b600060208201905081810360008301526121f781611f02565b9050919050565b6000602082019050818103600083015261221781611f25565b9050919050565b60006020820190506122336000830184611f57565b92915050565b600060408201905061224e6000830185611f57565b61225b6020830184611f57565b9392505050565b600061226c61227d565b905061227882826124f0565b919050565b6000604051905090565b600067ffffffffffffffff8211156122a2576122a16125c8565b5b602082029050602081019050919050565b600067ffffffffffffffff8211156122ce576122cd6125c8565b5b602082029050602081019050919050565b600067ffffffffffffffff8211156122fa576122f96125c8565b5b61230382612619565b9050602081019050919050565b600067ffffffffffffffff82111561232b5761232a6125c8565b5b61233482612619565b9050602081019050919050565b6000819050602082019050919050565b600081519050919050565b600081519050919050565b600081519050919050565b6000602082019050919050565b600082825260208201905092915050565b600082825260208201905092915050565b600082825260208201905092915050565b60006123bd82612472565b91506123c883612472565b9250827fffffffffffffffffffffffffffffffffffffffffffffffffffffffffffffffff038211156123fd576123fc61256a565b5b828201905092915050565b600061241382612452565b9050919050565b60008115159050919050565b60007fffffffff0000000000000000000000000000000000000000000000000000000082169050919050565b600073ffffffffffffffffffffffffffffffffffffffff82169050919050565b6000819050919050565b82818337600083830152505050565b60005b838110156124a957808201518184015260208101905061248e565b838111156124b8576000848401525b50505050565b600060028204905060018216806124d657607f821691505b602082108114156124ea576124e9612599565b5b50919050565b6124f982612619565b810181811067ffffffffffffffff82111715612518576125176125c8565b5b80604052505050565b600061252c82612472565b91507fffffffffffffffffffffffffffffffffffffffffffffffffffffffffffffffff82141561255f5761255e61256a565b5b600182019050919050565b7f4e487b7100000000000000000000000000000000000000000000000000000000600052601160045260246000fd5b7f4e487b7100000000000000000000000000000000000000000000000000000000600052602260045260246000fd5b7f4e487b7100000000000000000000000000000000000000000000000000000000600052604160045260246000fd5b600060033d11156126165760046000803e61261360005161262a565b90505b90565b6000601f19601f8301169050919050565b60008160e01c9050919050565b7f455243313135353a207472616e7366657220746f206e6f6e204552433131353560008201527f526563656976657220696d706c656d656e746572000000000000000000000000602082015250565b7f455243313135353a204552433131353552656365697665722072656a6563746560008201527f6420746f6b656e73000000000000000000000000000000000000000000000000602082015250565b7f455243313135353a2062616c616e636520717565727920666f7220746865207a60008201527f65726f2061646472657373000000000000000000000000000000000000000000602082015250565b7f455243313135353a2063616c6c6572206973206e6f74206f776e6572206e6f7260008201527f20617070726f7665640000000000000000000000000000000000000000000000602082015250565b7f455243313135353a207472616e7366657220746f20746865207a65726f20616460008201527f6472657373000000000000000000000000000000000000000000000000000000602082015250565b7f455243313135353a207472616e736665722063616c6c6572206973206e6f742060008201527f6f776e6572206e6f7220617070726f7665640000000000000000000000000000602082015250565b7f455243313135353a20696e73756666696369656e742062616c616e636520666f60008201527f72207472616e7366657200000000000000000000000000000000000000000000602082015250565b7f455243313135353a2073657474696e6720617070726f76616c2073746174757360008201527f20666f722073656c660000000000000000000000000000000000000000000000602082015250565b7f455243313135353a206163636f756e747320616e6420696473206c656e67746860008201527f206d69736d617463680000000000000000000000000000000000000000000000602082015250565b7f455243313135353a2069647320616e6420616d6f756e7473206c656e6774682060008201527f6d69736d61746368000000000000000000000000000000000000000000000000602082015250565b7f455243313135353a206d696e7420746f20746865207a65726f2061646472657360008201527f7300000000000000000000000000000000000000000000000000000000000000602082015250565b600060443d10156129ac57612a2f565b6129b461227d565b60043d036004823e80513d602482011167ffffffffffffffff821117156129dc575050612a2f565b808201805167ffffffffffffffff8111156129fa5750505050612a2f565b80602083010160043d038501811115612a17575050505050612a2f565b612a26826020018501866124f0565b82955050505050505b90565b612a3b81612408565b8114612a4657600080fd5b50565b612a528161241a565b8114612a5d57600080fd5b50565b612a6981612426565b8114612a7457600080fd5b50565b612a8081612472565b8114612a8b57600080fd5b5056fea26469706673582212203825f130a9dae016f7924ba58955fa0502c5ad31f4ec0d598c94dcae1952cca664736f6c63430008040033",
  "linkReferences": {},
  "deployedLinkReferences": {}
}