{
  "_format": "hh-sol-artifact-1",
  "contractName": "Articles",
  "sourceName": "contracts/Articles.sol",
  "abi": [
    {
      "inputs": [],
      "stateMutability": "nonpayable",
      "type": "constructor"
    },
    {
      "anonymous": false,
      "inputs": [
        {
          "indexed": true,
          "internalType": "address",
          "name": "account",
          "type": "address"
        },
        {
          "indexed": true,
          "internalType": "address",
          "name": "operator",
          "type": "address"
        },
        {
          "indexed": false,
          "internalType": "bool",
          "name": "approved",
          "type": "bool"
        }
      ],
      "name": "ApprovalForAll",
      "type": "event"
    },
    {
      "anonymous": false,
      "inputs": [
        {
          "indexed": true,
          "internalType": "address",
          "name": "creator",
          "type": "address"
        },
        {
          "indexed": true,
          "internalType": "string",
          "name": "uri",
          "type": "string"
        },
        {
          "indexed": true,
          "internalType": "uint256",
          "name": "id",
          "type": "uint256"
        },
        {
          "indexed": false,
          "internalType": "uint256",
          "name": "initialSupply",
          "type": "uint256"
        }
      ],
      "name": "ArticleMinted",
      "type": "event"
    },
    {
      "anonymous": false,
      "inputs": [
        {
          "indexed": true,
          "internalType": "address",
          "name": "operator",
          "type": "address"
        },
        {
          "indexed": true,
          "internalType": "address",
          "name": "from",
          "type": "address"
        },
        {
          "indexed": true,
          "internalType": "address",
          "name": "to",
          "type": "address"
        },
        {
          "indexed": false,
          "internalType": "uint256[]",
          "name": "ids",
          "type": "uint256[]"
        },
        {
          "indexed": false,
          "internalType": "uint256[]",
          "name": "values",
          "type": "uint256[]"
        }
      ],
      "name": "TransferBatch",
      "type": "event"
    },
    {
      "anonymous": false,
      "inputs": [
        {
          "indexed": true,
          "internalType": "address",
          "name": "operator",
          "type": "address"
        },
        {
          "indexed": true,
          "internalType": "address",
          "name": "from",
          "type": "address"
        },
        {
          "indexed": true,
          "internalType": "address",
          "name": "to",
          "type": "address"
        },
        {
          "indexed": false,
          "internalType": "uint256",
          "name": "id",
          "type": "uint256"
        },
        {
          "indexed": false,
          "internalType": "uint256",
          "name": "value",
          "type": "uint256"
        }
      ],
      "name": "TransferSingle",
      "type": "event"
    },
    {
      "anonymous": false,
      "inputs": [
        {
          "indexed": false,
          "internalType": "string",
          "name": "value",
          "type": "string"
        },
        {
          "indexed": true,
          "internalType": "uint256",
          "name": "id",
          "type": "uint256"
        }
      ],
      "name": "URI",
      "type": "event"
    },
    {
      "inputs": [
        {
          "internalType": "address",
          "name": "account",
          "type": "address"
        },
        {
          "internalType": "uint256",
          "name": "id",
          "type": "uint256"
        }
      ],
      "name": "balanceOf",
      "outputs": [
        {
          "internalType": "uint256",
          "name": "",
          "type": "uint256"
        }
      ],
      "stateMutability": "view",
      "type": "function"
    },
    {
      "inputs": [
        {
          "internalType": "address[]",
          "name": "accounts",
          "type": "address[]"
        },
        {
          "internalType": "uint256[]",
          "name": "ids",
          "type": "uint256[]"
        }
      ],
      "name": "balanceOfBatch",
      "outputs": [
        {
          "internalType": "uint256[]",
          "name": "",
          "type": "uint256[]"
        }
      ],
      "stateMutability": "view",
      "type": "function"
    },
    {
      "inputs": [
        {
          "internalType": "uint256",
          "name": "_initialSupply",
          "type": "uint256"
        },
        {
          "internalType": "string",
          "name": "_uri",
          "type": "string"
        }
      ],
      "name": "create",
      "outputs": [],
      "stateMutability": "nonpayable",
      "type": "function"
    },
    {
      "inputs": [
        {
          "internalType": "uint256",
          "name": "",
          "type": "uint256"
        }
      ],
      "name": "creators",
      "outputs": [
        {
          "internalType": "address",
          "name": "",
          "type": "address"
        }
      ],
      "stateMutability": "view",
      "type": "function"
    },
    {
      "inputs": [
        {
          "internalType": "uint256",
          "name": "id",
          "type": "uint256"
        }
      ],
      "name": "exists",
      "outputs": [
        {
          "internalType": "bool",
          "name": "",
          "type": "bool"
        }
      ],
      "stateMutability": "view",
      "type": "function"
    },
    {
      "inputs": [],
      "name": "getLatestId",
      "outputs": [
        {
          "internalType": "uint256",
          "name": "",
          "type": "uint256"
        }
      ],
      "stateMutability": "view",
      "type": "function"
    },
    {
      "inputs": [
        {
          "internalType": "uint256",
          "name": "_aditionalSupply",
          "type": "uint256"
        },
        {
          "internalType": "uint256",
          "name": "_id",
          "type": "uint256"
        }
      ],
      "name": "increaseSupply",
      "outputs": [],
      "stateMutability": "nonpayable",
      "type": "function"
    },
    {
      "inputs": [
        {
          "internalType": "address",
          "name": "account",
          "type": "address"
        },
        {
          "internalType": "address",
          "name": "operator",
          "type": "address"
        }
      ],
      "name": "isApprovedForAll",
      "outputs": [
        {
          "internalType": "bool",
          "name": "",
          "type": "bool"
        }
      ],
      "stateMutability": "view",
      "type": "function"
    },
    {
      "inputs": [
        {
          "internalType": "address",
          "name": "from",
          "type": "address"
        },
        {
          "internalType": "address",
          "name": "to",
          "type": "address"
        },
        {
          "internalType": "uint256[]",
          "name": "ids",
          "type": "uint256[]"
        },
        {
          "internalType": "uint256[]",
          "name": "amounts",
          "type": "uint256[]"
        },
        {
          "internalType": "bytes",
          "name": "data",
          "type": "bytes"
        }
      ],
      "name": "safeBatchTransferFrom",
      "outputs": [],
      "stateMutability": "nonpayable",
      "type": "function"
    },
    {
      "inputs": [
        {
          "internalType": "address",
          "name": "from",
          "type": "address"
        },
        {
          "internalType": "address",
          "name": "to",
          "type": "address"
        },
        {
          "internalType": "uint256",
          "name": "id",
          "type": "uint256"
        },
        {
          "internalType": "uint256",
          "name": "amount",
          "type": "uint256"
        },
        {
          "internalType": "bytes",
          "name": "data",
          "type": "bytes"
        }
      ],
      "name": "safeTransferFrom",
      "outputs": [],
      "stateMutability": "nonpayable",
      "type": "function"
    },
    {
      "inputs": [
        {
          "internalType": "address",
          "name": "operator",
          "type": "address"
        },
        {
          "internalType": "bool",
          "name": "approved",
          "type": "bool"
        }
      ],
      "name": "setApprovalForAll",
      "outputs": [],
      "stateMutability": "nonpayable",
      "type": "function"
    },
    {
      "inputs": [
        {
          "internalType": "bytes4",
          "name": "interfaceId",
          "type": "bytes4"
        }
      ],
      "name": "supportsInterface",
      "outputs": [
        {
          "internalType": "bool",
          "name": "",
          "type": "bool"
        }
      ],
      "stateMutability": "view",
      "type": "function"
    },
    {
      "inputs": [
        {
          "internalType": "uint256",
          "name": "id",
          "type": "uint256"
        }
      ],
      "name": "totalSupply",
      "outputs": [
        {
          "internalType": "uint256",
          "name": "",
          "type": "uint256"
        }
      ],
      "stateMutability": "view",
      "type": "function"
    },
    {
      "inputs": [
        {
          "internalType": "uint256",
          "name": "tokenId",
          "type": "uint256"
        }
      ],
      "name": "uri",
      "outputs": [
        {
          "internalType": "string",
          "name": "",
          "type": "string"
        }
      ],
      "stateMutability": "view",
      "type": "function"
    }
  ],
  "bytecode": "0x60806040523480156200001157600080fd5b506040518060400160405280600881526020017f41727469636c657300000000000000000000000000000000000000000000000081525062000059816200006060201b60201c565b5062000191565b8060029080519060200190620000789291906200007c565b5050565b8280546200008a906200012c565b90600052602060002090601f016020900481019282620000ae5760008555620000fa565b82601f10620000c957805160ff1916838001178555620000fa565b82800160010185558215620000fa579182015b82811115620000f9578251825591602001919060010190620000dc565b5b5090506200010991906200010d565b5090565b5b80821115620001285760008160009055506001016200010e565b5090565b600060028204905060018216806200014557607f821691505b602082108114156200015c576200015b62000162565b5b50919050565b7f4e487b7100000000000000000000000000000000000000000000000000000000600052602260045260246000fd5b612f2a80620001a16000396000f3fe608060405234801561001057600080fd5b50600436106100e95760003560e01c8063a22cb4651161008c578063e985e9c511610066578063e985e9c514610292578063e9e7e599146102c2578063eff91c7e146102de578063f242432a146102fc576100e9565b8063a22cb46514610216578063bd85b03914610232578063cd53d08e14610262576100e9565b80630e89341c116100c85780630e89341c1461016a5780632eb2c2d61461019a5780634e1273f4146101b65780634f558e79146101e6576100e9565b8062fdd58e146100ee5780630118fa491461011e57806301ffc9a71461013a575b600080fd5b61010860048036038101906101039190611e9a565b610318565b6040516101159190612650565b60405180910390f35b61013860048036038101906101339190611fbd565b6103e1565b005b610154600480360381019061014f9190611f42565b61050d565b6040516101619190612493565b60405180910390f35b610184600480360381019061017f9190611f94565b6105ef565b60405161019191906124ae565b60405180910390f35b6101b460048036038101906101af9190611d10565b610694565b005b6101d060048036038101906101cb9190611ed6565b610735565b6040516101dd919061243a565b60405180910390f35b61020060048036038101906101fb9190611f94565b6108e6565b60405161020d9190612493565b60405180910390f35b610230600480360381019061022b9190611e5e565b6108fa565b005b61024c60048036038101906102479190611f94565b610a7b565b6040516102599190612650565b60405180910390f35b61027c60048036038101906102779190611f94565b610a98565b604051610289919061235d565b60405180910390f35b6102ac60048036038101906102a79190611cd4565b610acb565b6040516102b99190612493565b60405180910390f35b6102dc60048036038101906102d79190612011565b610b5f565b005b6102e6610c21565b6040516102f39190612650565b60405180910390f35b61031660048036038101906103119190611dcf565b610c32565b005b60008073ffffffffffffffffffffffffffffffffffffffff168373ffffffffffffffffffffffffffffffffffffffff161415610389576040517f08c379a000000000000000000000000000000000000000000000000000000000815260040161038090612510565b60405180910390fd5b60008083815260200190815260200160002060008473ffffffffffffffffffffffffffffffffffffffff1673ffffffffffffffffffffffffffffffffffffffff16815260200190815260200160002054905092915050565b80600560006103f06004610cd3565b815260200190815260200160002090805190602001906104119291906119cc565b5033600660006104216004610cd3565b815260200190815260200160002060006101000a81548173ffffffffffffffffffffffffffffffffffffffff021916908373ffffffffffffffffffffffffffffffffffffffff1602179055506104913361047b6004610cd3565b8460405180602001604052806000815250610ce1565b61049b6004610cd3565b816040516104a99190612346565b60405180910390203373ffffffffffffffffffffffffffffffffffffffff167f85485678a683875df7280572f3804c5f1e6e09ddce75f42dda273fb8b2ae1c00856040516104f79190612650565b60405180910390a46105096004610d1d565b5050565b60007fd9b67a26000000000000000000000000000000000000000000000000000000007bffffffffffffffffffffffffffffffffffffffffffffffffffffffff1916827bffffffffffffffffffffffffffffffffffffffffffffffffffffffff191614806105d857507f0e89341c000000000000000000000000000000000000000000000000000000007bffffffffffffffffffffffffffffffffffffffffffffffffffffffff1916827bffffffffffffffffffffffffffffffffffffffffffffffffffffffff1916145b806105e857506105e782610d33565b5b9050919050565b606060056000838152602001908152602001600020805461060f906128fb565b80601f016020809104026020016040519081016040528092919081815260200182805461063b906128fb565b80156106885780601f1061065d57610100808354040283529160200191610688565b820191906000526020600020905b81548152906001019060200180831161066b57829003601f168201915b50505050509050919050565b61069c610d9d565b73ffffffffffffffffffffffffffffffffffffffff168573ffffffffffffffffffffffffffffffffffffffff1614806106e257506106e1856106dc610d9d565b610acb565b5b610721576040517f08c379a000000000000000000000000000000000000000000000000000000000815260040161071890612570565b60405180910390fd5b61072e8585858585610da5565b5050505050565b6060815183511461077b576040517f08c379a0000000000000000000000000000000000000000000000000000000008152600401610772906125f0565b60405180910390fd5b6000835167ffffffffffffffff8111156107be577f4e487b7100000000000000000000000000000000000000000000000000000000600052604160045260246000fd5b6040519080825280602002602001820160405280156107ec5781602001602082028036833780820191505090505b50905060005b84518110156108db57610885858281518110610837577f4e487b7100000000000000000000000000000000000000000000000000000000600052603260045260246000fd5b6020026020010151858381518110610878577f4e487b7100000000000000000000000000000000000000000000000000000000600052603260045260246000fd5b6020026020010151610318565b8282815181106108be577f4e487b7100000000000000000000000000000000000000000000000000000000600052603260045260246000fd5b602002602001018181525050806108d49061295e565b90506107f2565b508091505092915050565b6000806108f283610a7b565b119050919050565b8173ffffffffffffffffffffffffffffffffffffffff16610919610d9d565b73ffffffffffffffffffffffffffffffffffffffff161415610970576040517f08c379a0000000000000000000000000000000000000000000000000000000008152600401610967906125d0565b60405180910390fd5b806001600061097d610d9d565b73ffffffffffffffffffffffffffffffffffffffff1673ffffffffffffffffffffffffffffffffffffffff16815260200190815260200160002060008473ffffffffffffffffffffffffffffffffffffffff1673ffffffffffffffffffffffffffffffffffffffff16815260200190815260200160002060006101000a81548160ff0219169083151502179055508173ffffffffffffffffffffffffffffffffffffffff16610a2a610d9d565b73ffffffffffffffffffffffffffffffffffffffff167f17307eab39ab6107e8899845ad3d59bd9653f200f220920489ca2b5937696c3183604051610a6f9190612493565b60405180910390a35050565b600060036000838152602001908152602001600020549050919050565b60066020528060005260406000206000915054906101000a900473ffffffffffffffffffffffffffffffffffffffff1681565b6000600160008473ffffffffffffffffffffffffffffffffffffffff1673ffffffffffffffffffffffffffffffffffffffff16815260200190815260200160002060008373ffffffffffffffffffffffffffffffffffffffff1673ffffffffffffffffffffffffffffffffffffffff16815260200190815260200160002060009054906101000a900460ff16905092915050565b803373ffffffffffffffffffffffffffffffffffffffff166006600083815260200190815260200160002060009054906101000a900473ffffffffffffffffffffffffffffffffffffffff1673ffffffffffffffffffffffffffffffffffffffff1614610c01576040517f08c379a0000000000000000000000000000000000000000000000000000000008152600401610bf890612590565b60405180910390fd5b610c1c33838560405180602001604052806000815250610ce1565b505050565b6000610c2d6004610cd3565b905090565b610c3a610d9d565b73ffffffffffffffffffffffffffffffffffffffff168573ffffffffffffffffffffffffffffffffffffffff161480610c805750610c7f85610c7a610d9d565b610acb565b5b610cbf576040517f08c379a0000000000000000000000000000000000000000000000000000000008152600401610cb690612530565b60405180910390fd5b610ccc8585858585611105565b5050505050565b600081600001549050919050565b610ced84848484611387565b81600360008581526020019081526020016000206000828254610d1091906127ef565b9250508190555050505050565b6001816000016000828254019250508190555050565b60007f01ffc9a7000000000000000000000000000000000000000000000000000000007bffffffffffffffffffffffffffffffffffffffffffffffffffffffff1916827bffffffffffffffffffffffffffffffffffffffffffffffffffffffff1916149050919050565b600033905090565b8151835114610de9576040517f08c379a0000000000000000000000000000000000000000000000000000000008152600401610de090612610565b60405180910390fd5b600073ffffffffffffffffffffffffffffffffffffffff168473ffffffffffffffffffffffffffffffffffffffff161415610e59576040517f08c379a0000000000000000000000000000000000000000000000000000000008152600401610e5090612550565b60405180910390fd5b6000610e63610d9d565b9050610e7381878787878761151d565b60005b8451811015611070576000858281518110610eba577f4e487b7100000000000000000000000000000000000000000000000000000000600052603260045260246000fd5b602002602001015190506000858381518110610eff577f4e487b7100000000000000000000000000000000000000000000000000000000600052603260045260246000fd5b60200260200101519050600080600084815260200190815260200160002060008b73ffffffffffffffffffffffffffffffffffffffff1673ffffffffffffffffffffffffffffffffffffffff16815260200190815260200160002054905081811015610fa0576040517f08c379a0000000000000000000000000000000000000000000000000000000008152600401610f97906125b0565b60405180910390fd5b81810360008085815260200190815260200160002060008c73ffffffffffffffffffffffffffffffffffffffff1673ffffffffffffffffffffffffffffffffffffffff168152602001908152602001600020819055508160008085815260200190815260200160002060008b73ffffffffffffffffffffffffffffffffffffffff1673ffffffffffffffffffffffffffffffffffffffff168152602001908152602001600020600082825461105591906127ef565b92505081905550505050806110699061295e565b9050610e76565b508473ffffffffffffffffffffffffffffffffffffffff168673ffffffffffffffffffffffffffffffffffffffff168273ffffffffffffffffffffffffffffffffffffffff167f4a39dc06d4c0dbc64b70af90fd698a233a518aa5d07e595d983b8c0526c8f7fb87876040516110e792919061245c565b60405180910390a46110fd818787878787611525565b505050505050565b600073ffffffffffffffffffffffffffffffffffffffff168473ffffffffffffffffffffffffffffffffffffffff161415611175576040517f08c379a000000000000000000000000000000000000000000000000000000000815260040161116c90612550565b60405180910390fd5b600061117f610d9d565b905061119f8187876111908861170c565b6111998861170c565b8761151d565b600080600086815260200190815260200160002060008873ffffffffffffffffffffffffffffffffffffffff1673ffffffffffffffffffffffffffffffffffffffff16815260200190815260200160002054905083811015611236576040517f08c379a000000000000000000000000000000000000000000000000000000000815260040161122d906125b0565b60405180910390fd5b83810360008087815260200190815260200160002060008973ffffffffffffffffffffffffffffffffffffffff1673ffffffffffffffffffffffffffffffffffffffff168152602001908152602001600020819055508360008087815260200190815260200160002060008873ffffffffffffffffffffffffffffffffffffffff1673ffffffffffffffffffffffffffffffffffffffff16815260200190815260200160002060008282546112eb91906127ef565b925050819055508573ffffffffffffffffffffffffffffffffffffffff168773ffffffffffffffffffffffffffffffffffffffff168373ffffffffffffffffffffffffffffffffffffffff167fc3d58168c5ae7397731d063d5bbf3d657854427343f4c083240f7aacaa2d0f62888860405161136892919061266b565b60405180910390a461137e8288888888886117d2565b50505050505050565b600073ffffffffffffffffffffffffffffffffffffffff168473ffffffffffffffffffffffffffffffffffffffff1614156113f7576040517f08c379a00000000000000000000000000000000000000000000000000000000081526004016113ee90612630565b60405180910390fd5b6000611401610d9d565b9050611422816000876114138861170c565b61141c8861170c565b8761151d565b8260008086815260200190815260200160002060008773ffffffffffffffffffffffffffffffffffffffff1673ffffffffffffffffffffffffffffffffffffffff168152602001908152602001600020600082825461148191906127ef565b925050819055508473ffffffffffffffffffffffffffffffffffffffff16600073ffffffffffffffffffffffffffffffffffffffff168273ffffffffffffffffffffffffffffffffffffffff167fc3d58168c5ae7397731d063d5bbf3d657854427343f4c083240f7aacaa2d0f6287876040516114ff92919061266b565b60405180910390a4611516816000878787876117d2565b5050505050565b505050505050565b6115448473ffffffffffffffffffffffffffffffffffffffff166119b9565b15611704578373ffffffffffffffffffffffffffffffffffffffff1663bc197c8187878686866040518663ffffffff1660e01b815260040161158a959493929190612378565b602060405180830381600087803b1580156115a457600080fd5b505af19250505080156115d557506040513d601f19601f820116820180604052508101906115d29190611f6b565b60015b61167b576115e1612a34565b806308c379a0141561163e57506115f6612e02565b806116015750611640565b806040517f08c379a000000000000000000000000000000000000000000000000000000000815260040161163591906124ae565b60405180910390fd5b505b6040517f08c379a0000000000000000000000000000000000000000000000000000000008152600401611672906124d0565b60405180910390fd5b63bc197c8160e01b7bffffffffffffffffffffffffffffffffffffffffffffffffffffffff1916817bffffffffffffffffffffffffffffffffffffffffffffffffffffffff191614611702576040517f08c379a00000000000000000000000000000000000000000000000000000000081526004016116f9906124f0565b60405180910390fd5b505b505050505050565b60606000600167ffffffffffffffff811115611751577f4e487b7100000000000000000000000000000000000000000000000000000000600052604160045260246000fd5b60405190808252806020026020018201604052801561177f5781602001602082028036833780820191505090505b50905082816000815181106117bd577f4e487b7100000000000000000000000000000000000000000000000000000000600052603260045260246000fd5b60200260200101818152505080915050919050565b6117f18473ffffffffffffffffffffffffffffffffffffffff166119b9565b156119b1578373ffffffffffffffffffffffffffffffffffffffff1663f23a6e6187878686866040518663ffffffff1660e01b81526004016118379594939291906123e0565b602060405180830381600087803b15801561185157600080fd5b505af192505050801561188257506040513d601f19601f8201168201806040525081019061187f9190611f6b565b60015b6119285761188e612a34565b806308c379a014156118eb57506118a3612e02565b806118ae57506118ed565b806040517f08c379a00000000000000000000000000000000000000000000000000000000081526004016118e291906124ae565b60405180910390fd5b505b6040517f08c379a000000000000000000000000000000000000000000000000000000000815260040161191f906124d0565b60405180910390fd5b63f23a6e6160e01b7bffffffffffffffffffffffffffffffffffffffffffffffffffffffff1916817bffffffffffffffffffffffffffffffffffffffffffffffffffffffff1916146119af576040517f08c379a00000000000000000000000000000000000000000000000000000000081526004016119a6906124f0565b60405180910390fd5b505b505050505050565b600080823b905060008111915050919050565b8280546119d8906128fb565b90600052602060002090601f0160209004810192826119fa5760008555611a41565b82601f10611a1357805160ff1916838001178555611a41565b82800160010185558215611a41579182015b82811115611a40578251825591602001919060010190611a25565b5b509050611a4e9190611a52565b5090565b5b80821115611a6b576000816000905550600101611a53565b5090565b6000611a82611a7d846126b9565b612694565b90508083825260208201905082856020860282011115611aa157600080fd5b60005b85811015611ad15781611ab78882611bc3565b845260208401935060208301925050600181019050611aa4565b5050509392505050565b6000611aee611ae9846126e5565b612694565b90508083825260208201905082856020860282011115611b0d57600080fd5b60005b85811015611b3d5781611b238882611cbf565b845260208401935060208301925050600181019050611b10565b5050509392505050565b6000611b5a611b5584612711565b612694565b905082815260208101848484011115611b7257600080fd5b611b7d8482856128b9565b509392505050565b6000611b98611b9384612742565b612694565b905082815260208101848484011115611bb057600080fd5b611bbb8482856128b9565b509392505050565b600081359050611bd281612e98565b92915050565b600082601f830112611be957600080fd5b8135611bf9848260208601611a6f565b91505092915050565b600082601f830112611c1357600080fd5b8135611c23848260208601611adb565b91505092915050565b600081359050611c3b81612eaf565b92915050565b600081359050611c5081612ec6565b92915050565b600081519050611c6581612ec6565b92915050565b600082601f830112611c7c57600080fd5b8135611c8c848260208601611b47565b91505092915050565b600082601f830112611ca657600080fd5b8135611cb6848260208601611b85565b91505092915050565b600081359050611cce81612edd565b92915050565b60008060408385031215611ce757600080fd5b6000611cf585828601611bc3565b9250506020611d0685828601611bc3565b9150509250929050565b600080600080600060a08688031215611d2857600080fd5b6000611d3688828901611bc3565b9550506020611d4788828901611bc3565b945050604086013567ffffffffffffffff811115611d6457600080fd5b611d7088828901611c02565b935050606086013567ffffffffffffffff811115611d8d57600080fd5b611d9988828901611c02565b925050608086013567ffffffffffffffff811115611db657600080fd5b611dc288828901611c6b565b9150509295509295909350565b600080600080600060a08688031215611de757600080fd5b6000611df588828901611bc3565b9550506020611e0688828901611bc3565b9450506040611e1788828901611cbf565b9350506060611e2888828901611cbf565b925050608086013567ffffffffffffffff811115611e4557600080fd5b611e5188828901611c6b565b9150509295509295909350565b60008060408385031215611e7157600080fd5b6000611e7f85828601611bc3565b9250506020611e9085828601611c2c565b9150509250929050565b60008060408385031215611ead57600080fd5b6000611ebb85828601611bc3565b9250506020611ecc85828601611cbf565b9150509250929050565b60008060408385031215611ee957600080fd5b600083013567ffffffffffffffff811115611f0357600080fd5b611f0f85828601611bd8565b925050602083013567ffffffffffffffff811115611f2c57600080fd5b611f3885828601611c02565b9150509250929050565b600060208284031215611f5457600080fd5b6000611f6284828501611c41565b91505092915050565b600060208284031215611f7d57600080fd5b6000611f8b84828501611c56565b91505092915050565b600060208284031215611fa657600080fd5b6000611fb484828501611cbf565b91505092915050565b60008060408385031215611fd057600080fd5b6000611fde85828601611cbf565b925050602083013567ffffffffffffffff811115611ffb57600080fd5b61200785828601611c95565b9150509250929050565b6000806040838503121561202457600080fd5b600061203285828601611cbf565b925050602061204385828601611cbf565b9150509250929050565b60006120598383612328565b60208301905092915050565b61206e81612845565b82525050565b600061207f82612783565b61208981856127b1565b935061209483612773565b8060005b838110156120c55781516120ac888261204d565b97506120b7836127a4565b925050600181019050612098565b5085935050505092915050565b6120db81612857565b82525050565b60006120ec8261278e565b6120f681856127c2565b93506121068185602086016128c8565b61210f81612a56565b840191505092915050565b600061212582612799565b61212f81856127d3565b935061213f8185602086016128c8565b61214881612a56565b840191505092915050565b600061215e82612799565b61216881856127e4565b93506121788185602086016128c8565b80840191505092915050565b60006121916034836127d3565b915061219c82612a74565b604082019050919050565b60006121b46028836127d3565b91506121bf82612ac3565b604082019050919050565b60006121d7602b836127d3565b91506121e282612b12565b604082019050919050565b60006121fa6029836127d3565b915061220582612b61565b604082019050919050565b600061221d6025836127d3565b915061222882612bb0565b604082019050919050565b60006122406032836127d3565b915061224b82612bff565b604082019050919050565b60006122636015836127d3565b915061226e82612c4e565b602082019050919050565b6000612286602a836127d3565b915061229182612c77565b604082019050919050565b60006122a96029836127d3565b91506122b482612cc6565b604082019050919050565b60006122cc6029836127d3565b91506122d782612d15565b604082019050919050565b60006122ef6028836127d3565b91506122fa82612d64565b604082019050919050565b60006123126021836127d3565b915061231d82612db3565b604082019050919050565b612331816128af565b82525050565b612340816128af565b82525050565b60006123528284612153565b915081905092915050565b60006020820190506123726000830184612065565b92915050565b600060a08201905061238d6000830188612065565b61239a6020830187612065565b81810360408301526123ac8186612074565b905081810360608301526123c08185612074565b905081810360808301526123d481846120e1565b90509695505050505050565b600060a0820190506123f56000830188612065565b6124026020830187612065565b61240f6040830186612337565b61241c6060830185612337565b818103608083015261242e81846120e1565b90509695505050505050565b600060208201905081810360008301526124548184612074565b905092915050565b600060408201905081810360008301526124768185612074565b9050818103602083015261248a8184612074565b90509392505050565b60006020820190506124a860008301846120d2565b92915050565b600060208201905081810360008301526124c8818461211a565b905092915050565b600060208201905081810360008301526124e981612184565b9050919050565b60006020820190508181036000830152612509816121a7565b9050919050565b60006020820190508181036000830152612529816121ca565b9050919050565b60006020820190508181036000830152612549816121ed565b9050919050565b6000602082019050818103600083015261256981612210565b9050919050565b6000602082019050818103600083015261258981612233565b9050919050565b600060208201905081810360008301526125a981612256565b9050919050565b600060208201905081810360008301526125c981612279565b9050919050565b600060208201905081810360008301526125e98161229c565b9050919050565b60006020820190508181036000830152612609816122bf565b9050919050565b60006020820190508181036000830152612629816122e2565b9050919050565b6000602082019050818103600083015261264981612305565b9050919050565b60006020820190506126656000830184612337565b92915050565b60006040820190506126806000830185612337565b61268d6020830184612337565b9392505050565b600061269e6126af565b90506126aa828261292d565b919050565b6000604051905090565b600067ffffffffffffffff8211156126d4576126d3612a05565b5b602082029050602081019050919050565b600067ffffffffffffffff821115612700576126ff612a05565b5b602082029050602081019050919050565b600067ffffffffffffffff82111561272c5761272b612a05565b5b61273582612a56565b9050602081019050919050565b600067ffffffffffffffff82111561275d5761275c612a05565b5b61276682612a56565b9050602081019050919050565b6000819050602082019050919050565b600081519050919050565b600081519050919050565b600081519050919050565b6000602082019050919050565b600082825260208201905092915050565b600082825260208201905092915050565b600082825260208201905092915050565b600081905092915050565b60006127fa826128af565b9150612805836128af565b9250827fffffffffffffffffffffffffffffffffffffffffffffffffffffffffffffffff0382111561283a576128396129a7565b5b828201905092915050565b60006128508261288f565b9050919050565b60008115159050919050565b60007fffffffff0000000000000000000000000000000000000000000000000000000082169050919050565b600073ffffffffffffffffffffffffffffffffffffffff82169050919050565b6000819050919050565b82818337600083830152505050565b60005b838110156128e65780820151818401526020810190506128cb565b838111156128f5576000848401525b50505050565b6000600282049050600182168061291357607f821691505b60208210811415612927576129266129d6565b5b50919050565b61293682612a56565b810181811067ffffffffffffffff8211171561295557612954612a05565b5b80604052505050565b6000612969826128af565b91507fffffffffffffffffffffffffffffffffffffffffffffffffffffffffffffffff82141561299c5761299b6129a7565b5b600182019050919050565b7f4e487b7100000000000000000000000000000000000000000000000000000000600052601160045260246000fd5b7f4e487b7100000000000000000000000000000000000000000000000000000000600052602260045260246000fd5b7f4e487b7100000000000000000000000000000000000000000000000000000000600052604160045260246000fd5b600060033d1115612a535760046000803e612a50600051612a67565b90505b90565b6000601f19601f8301169050919050565b60008160e01c9050919050565b7f455243313135353a207472616e7366657220746f206e6f6e204552433131353560008201527f526563656976657220696d706c656d656e746572000000000000000000000000602082015250565b7f455243313135353a204552433131353552656365697665722072656a6563746560008201527f6420746f6b656e73000000000000000000000000000000000000000000000000602082015250565b7f455243313135353a2062616c616e636520717565727920666f7220746865207a60008201527f65726f2061646472657373000000000000000000000000000000000000000000602082015250565b7f455243313135353a2063616c6c6572206973206e6f74206f776e6572206e6f7260008201527f20617070726f7665640000000000000000000000000000000000000000000000602082015250565b7f455243313135353a207472616e7366657220746f20746865207a65726f20616460008201527f6472657373000000000000000000000000000000000000000000000000000000602082015250565b7f455243313135353a207472616e736665722063616c6c6572206973206e6f742060008201527f6f776e6572206e6f7220617070726f7665640000000000000000000000000000602082015250565b7f7265737472696374656420746f2063726561746f720000000000000000000000600082015250565b7f455243313135353a20696e73756666696369656e742062616c616e636520666f60008201527f72207472616e7366657200000000000000000000000000000000000000000000602082015250565b7f455243313135353a2073657474696e6720617070726f76616c2073746174757360008201527f20666f722073656c660000000000000000000000000000000000000000000000602082015250565b7f455243313135353a206163636f756e747320616e6420696473206c656e67746860008201527f206d69736d617463680000000000000000000000000000000000000000000000602082015250565b7f455243313135353a2069647320616e6420616d6f756e7473206c656e6774682060008201527f6d69736d61746368000000000000000000000000000000000000000000000000602082015250565b7f455243313135353a206d696e7420746f20746865207a65726f2061646472657360008201527f7300000000000000000000000000000000000000000000000000000000000000602082015250565b600060443d1015612e1257612e95565b612e1a6126af565b60043d036004823e80513d602482011167ffffffffffffffff82111715612e42575050612e95565b808201805167ffffffffffffffff811115612e605750505050612e95565b80602083010160043d038501811115612e7d575050505050612e95565b612e8c8260200185018661292d565b82955050505050505b90565b612ea181612845565b8114612eac57600080fd5b50565b612eb881612857565b8114612ec357600080fd5b50565b612ecf81612863565b8114612eda57600080fd5b50565b612ee6816128af565b8114612ef157600080fd5b5056fea26469706673582212208ba4ed86ba8bcc3f813f273f76249c9416911bea9fcfbdd01afd5560dc0c183664736f6c63430008040033",
  "linkReferences": {},
  "deployedLinkReferences": {}
}