{
  "_format": "hh-sol-artifact-1",
  "contractName": "Articles",
  "sourceName": "contracts/Articles.sol",
  "abi": [
    {
      "inputs": [],
      "stateMutability": "nonpayable",
      "type": "constructor"
    },
    {
      "anonymous": false,
      "inputs": [
        {
          "indexed": true,
          "internalType": "address",
          "name": "account",
          "type": "address"
        },
        {
          "indexed": true,
          "internalType": "address",
          "name": "operator",
          "type": "address"
        },
        {
          "indexed": false,
          "internalType": "bool",
          "name": "approved",
          "type": "bool"
        }
      ],
      "name": "ApprovalForAll",
      "type": "event"
    },
    {
      "anonymous": false,
      "inputs": [
        {
          "indexed": true,
          "internalType": "address",
          "name": "creator",
          "type": "address"
        },
        {
          "indexed": false,
          "internalType": "string",
          "name": "uri",
          "type": "string"
        },
        {
          "indexed": true,
          "internalType": "uint256",
          "name": "id",
          "type": "uint256"
        },
        {
          "indexed": false,
          "internalType": "uint256",
          "name": "initialSupply",
          "type": "uint256"
        }
      ],
      "name": "ArticleMinted",
      "type": "event"
    },
    {
      "anonymous": false,
      "inputs": [
        {
          "indexed": true,
          "internalType": "address",
          "name": "operator",
          "type": "address"
        },
        {
          "indexed": true,
          "internalType": "address",
          "name": "from",
          "type": "address"
        },
        {
          "indexed": true,
          "internalType": "address",
          "name": "to",
          "type": "address"
        },
        {
          "indexed": false,
          "internalType": "uint256[]",
          "name": "ids",
          "type": "uint256[]"
        },
        {
          "indexed": false,
          "internalType": "uint256[]",
          "name": "values",
          "type": "uint256[]"
        }
      ],
      "name": "TransferBatch",
      "type": "event"
    },
    {
      "anonymous": false,
      "inputs": [
        {
          "indexed": true,
          "internalType": "address",
          "name": "operator",
          "type": "address"
        },
        {
          "indexed": true,
          "internalType": "address",
          "name": "from",
          "type": "address"
        },
        {
          "indexed": true,
          "internalType": "address",
          "name": "to",
          "type": "address"
        },
        {
          "indexed": false,
          "internalType": "uint256",
          "name": "id",
          "type": "uint256"
        },
        {
          "indexed": false,
          "internalType": "uint256",
          "name": "value",
          "type": "uint256"
        }
      ],
      "name": "TransferSingle",
      "type": "event"
    },
    {
      "anonymous": false,
      "inputs": [
        {
          "indexed": false,
          "internalType": "string",
          "name": "value",
          "type": "string"
        },
        {
          "indexed": true,
          "internalType": "uint256",
          "name": "id",
          "type": "uint256"
        }
      ],
      "name": "URI",
      "type": "event"
    },
    {
      "inputs": [
        {
          "internalType": "address",
          "name": "account",
          "type": "address"
        },
        {
          "internalType": "uint256",
          "name": "id",
          "type": "uint256"
        }
      ],
      "name": "balanceOf",
      "outputs": [
        {
          "internalType": "uint256",
          "name": "",
          "type": "uint256"
        }
      ],
      "stateMutability": "view",
      "type": "function"
    },
    {
      "inputs": [
        {
          "internalType": "address[]",
          "name": "accounts",
          "type": "address[]"
        },
        {
          "internalType": "uint256[]",
          "name": "ids",
          "type": "uint256[]"
        }
      ],
      "name": "balanceOfBatch",
      "outputs": [
        {
          "internalType": "uint256[]",
          "name": "",
          "type": "uint256[]"
        }
      ],
      "stateMutability": "view",
      "type": "function"
    },
    {
      "inputs": [
        {
          "internalType": "uint256",
          "name": "_initialSupply",
          "type": "uint256"
        },
        {
          "internalType": "string",
          "name": "_uri",
          "type": "string"
        }
      ],
      "name": "create",
      "outputs": [],
      "stateMutability": "nonpayable",
      "type": "function"
    },
    {
      "inputs": [
        {
          "internalType": "uint256",
          "name": "",
          "type": "uint256"
        }
      ],
      "name": "creators",
      "outputs": [
        {
          "internalType": "address",
          "name": "",
          "type": "address"
        }
      ],
      "stateMutability": "view",
      "type": "function"
    },
    {
      "inputs": [
        {
          "internalType": "uint256",
          "name": "id",
          "type": "uint256"
        }
      ],
      "name": "exists",
      "outputs": [
        {
          "internalType": "bool",
          "name": "",
          "type": "bool"
        }
      ],
      "stateMutability": "view",
      "type": "function"
    },
    {
      "inputs": [],
      "name": "getLatestId",
      "outputs": [
        {
          "internalType": "uint256",
          "name": "",
          "type": "uint256"
        }
      ],
      "stateMutability": "view",
      "type": "function"
    },
    {
      "inputs": [
        {
          "internalType": "uint256",
          "name": "_aditionalSupply",
          "type": "uint256"
        },
        {
          "internalType": "uint256",
          "name": "_id",
          "type": "uint256"
        }
      ],
      "name": "increaseSupply",
      "outputs": [],
      "stateMutability": "nonpayable",
      "type": "function"
    },
    {
      "inputs": [
        {
          "internalType": "address",
          "name": "account",
          "type": "address"
        },
        {
          "internalType": "address",
          "name": "operator",
          "type": "address"
        }
      ],
      "name": "isApprovedForAll",
      "outputs": [
        {
          "internalType": "bool",
          "name": "",
          "type": "bool"
        }
      ],
      "stateMutability": "view",
      "type": "function"
    },
    {
      "inputs": [
        {
          "internalType": "address",
          "name": "from",
          "type": "address"
        },
        {
          "internalType": "address",
          "name": "to",
          "type": "address"
        },
        {
          "internalType": "uint256[]",
          "name": "ids",
          "type": "uint256[]"
        },
        {
          "internalType": "uint256[]",
          "name": "amounts",
          "type": "uint256[]"
        },
        {
          "internalType": "bytes",
          "name": "data",
          "type": "bytes"
        }
      ],
      "name": "safeBatchTransferFrom",
      "outputs": [],
      "stateMutability": "nonpayable",
      "type": "function"
    },
    {
      "inputs": [
        {
          "internalType": "address",
          "name": "from",
          "type": "address"
        },
        {
          "internalType": "address",
          "name": "to",
          "type": "address"
        },
        {
          "internalType": "uint256",
          "name": "id",
          "type": "uint256"
        },
        {
          "internalType": "uint256",
          "name": "amount",
          "type": "uint256"
        },
        {
          "internalType": "bytes",
          "name": "data",
          "type": "bytes"
        }
      ],
      "name": "safeTransferFrom",
      "outputs": [],
      "stateMutability": "nonpayable",
      "type": "function"
    },
    {
      "inputs": [
        {
          "internalType": "address",
          "name": "operator",
          "type": "address"
        },
        {
          "internalType": "bool",
          "name": "approved",
          "type": "bool"
        }
      ],
      "name": "setApprovalForAll",
      "outputs": [],
      "stateMutability": "nonpayable",
      "type": "function"
    },
    {
      "inputs": [
        {
          "internalType": "bytes4",
          "name": "interfaceId",
          "type": "bytes4"
        }
      ],
      "name": "supportsInterface",
      "outputs": [
        {
          "internalType": "bool",
          "name": "",
          "type": "bool"
        }
      ],
      "stateMutability": "view",
      "type": "function"
    },
    {
      "inputs": [
        {
          "internalType": "uint256",
          "name": "id",
          "type": "uint256"
        }
      ],
      "name": "totalSupply",
      "outputs": [
        {
          "internalType": "uint256",
          "name": "",
          "type": "uint256"
        }
      ],
      "stateMutability": "view",
      "type": "function"
    },
    {
      "inputs": [
        {
          "internalType": "uint256",
          "name": "tokenId",
          "type": "uint256"
        }
      ],
      "name": "uri",
      "outputs": [
        {
          "internalType": "string",
          "name": "",
          "type": "string"
        }
      ],
      "stateMutability": "view",
      "type": "function"
    }
  ],
  "bytecode": "0x60806040523480156200001157600080fd5b506040518060400160405280600881526020017f41727469636c657300000000000000000000000000000000000000000000000081525062000059816200006060201b60201c565b5062000191565b8060029080519060200190620000789291906200007c565b5050565b8280546200008a906200012c565b90600052602060002090601f016020900481019282620000ae5760008555620000fa565b82601f10620000c957805160ff1916838001178555620000fa565b82800160010185558215620000fa579182015b82811115620000f9578251825591602001919060010190620000dc565b5b5090506200010991906200010d565b5090565b5b80821115620001285760008160009055506001016200010e565b5090565b600060028204905060018216806200014557607f821691505b602082108114156200015c576200015b62000162565b5b50919050565b7f4e487b7100000000000000000000000000000000000000000000000000000000600052602260045260246000fd5b612ef380620001a16000396000f3fe608060405234801561001057600080fd5b50600436106100e95760003560e01c8063a22cb4651161008c578063e985e9c511610066578063e985e9c514610292578063e9e7e599146102c2578063eff91c7e146102de578063f242432a146102fc576100e9565b8063a22cb46514610216578063bd85b03914610232578063cd53d08e14610262576100e9565b80630e89341c116100c85780630e89341c1461016a5780632eb2c2d61461019a5780634e1273f4146101b65780634f558e79146101e6576100e9565b8062fdd58e146100ee5780630118fa491461011e57806301ffc9a71461013a575b600080fd5b61010860048036038101906101039190611e86565b610318565b6040516101159190612624565b60405180910390f35b61013860048036038101906101339190611fa9565b6103e1565b005b610154600480360381019061014f9190611f2e565b6104f9565b6040516101619190612437565b60405180910390f35b610184600480360381019061017f9190611f80565b6105db565b6040516101919190612452565b60405180910390f35b6101b460048036038101906101af9190611cfc565b610680565b005b6101d060048036038101906101cb9190611ec2565b610721565b6040516101dd91906123de565b60405180910390f35b61020060048036038101906101fb9190611f80565b6108d2565b60405161020d9190612437565b60405180910390f35b610230600480360381019061022b9190611e4a565b6108e6565b005b61024c60048036038101906102479190611f80565b610a67565b6040516102599190612624565b60405180910390f35b61027c60048036038101906102779190611f80565b610a84565b6040516102899190612301565b60405180910390f35b6102ac60048036038101906102a79190611cc0565b610ab7565b6040516102b99190612437565b60405180910390f35b6102dc60048036038101906102d79190611ffd565b610b4b565b005b6102e6610c0d565b6040516102f39190612624565b60405180910390f35b61031660048036038101906103119190611dbb565b610c1e565b005b60008073ffffffffffffffffffffffffffffffffffffffff168373ffffffffffffffffffffffffffffffffffffffff161415610389576040517f08c379a0000000000000000000000000000000000000000000000000000000008152600401610380906124e4565b60405180910390fd5b60008083815260200190815260200160002060008473ffffffffffffffffffffffffffffffffffffffff1673ffffffffffffffffffffffffffffffffffffffff16815260200190815260200160002054905092915050565b80600560006103f06004610cbf565b815260200190815260200160002090805190602001906104119291906119b8565b5033600660006104216004610cbf565b815260200190815260200160002060006101000a81548173ffffffffffffffffffffffffffffffffffffffff021916908373ffffffffffffffffffffffffffffffffffffffff1602179055506104913361047b6004610cbf565b8460405180602001604052806000815250610ccd565b61049b6004610cbf565b3373ffffffffffffffffffffffffffffffffffffffff167f85485678a683875df7280572f3804c5f1e6e09ddce75f42dda273fb8b2ae1c0083856040516104e3929190612474565b60405180910390a36104f56004610d09565b5050565b60007fd9b67a26000000000000000000000000000000000000000000000000000000007bffffffffffffffffffffffffffffffffffffffffffffffffffffffff1916827bffffffffffffffffffffffffffffffffffffffffffffffffffffffff191614806105c457507f0e89341c000000000000000000000000000000000000000000000000000000007bffffffffffffffffffffffffffffffffffffffffffffffffffffffff1916827bffffffffffffffffffffffffffffffffffffffffffffffffffffffff1916145b806105d457506105d382610d1f565b5b9050919050565b60606005600083815260200190815260200160002080546105fb906128c4565b80601f0160208091040260200160405190810160405280929190818152602001828054610627906128c4565b80156106745780601f1061064957610100808354040283529160200191610674565b820191906000526020600020905b81548152906001019060200180831161065757829003601f168201915b50505050509050919050565b610688610d89565b73ffffffffffffffffffffffffffffffffffffffff168573ffffffffffffffffffffffffffffffffffffffff1614806106ce57506106cd856106c8610d89565b610ab7565b5b61070d576040517f08c379a000000000000000000000000000000000000000000000000000000000815260040161070490612544565b60405180910390fd5b61071a8585858585610d91565b5050505050565b60608151835114610767576040517f08c379a000000000000000000000000000000000000000000000000000000000815260040161075e906125c4565b60405180910390fd5b6000835167ffffffffffffffff8111156107aa577f4e487b7100000000000000000000000000000000000000000000000000000000600052604160045260246000fd5b6040519080825280602002602001820160405280156107d85781602001602082028036833780820191505090505b50905060005b84518110156108c757610871858281518110610823577f4e487b7100000000000000000000000000000000000000000000000000000000600052603260045260246000fd5b6020026020010151858381518110610864577f4e487b7100000000000000000000000000000000000000000000000000000000600052603260045260246000fd5b6020026020010151610318565b8282815181106108aa577f4e487b7100000000000000000000000000000000000000000000000000000000600052603260045260246000fd5b602002602001018181525050806108c090612927565b90506107de565b508091505092915050565b6000806108de83610a67565b119050919050565b8173ffffffffffffffffffffffffffffffffffffffff16610905610d89565b73ffffffffffffffffffffffffffffffffffffffff16141561095c576040517f08c379a0000000000000000000000000000000000000000000000000000000008152600401610953906125a4565b60405180910390fd5b8060016000610969610d89565b73ffffffffffffffffffffffffffffffffffffffff1673ffffffffffffffffffffffffffffffffffffffff16815260200190815260200160002060008473ffffffffffffffffffffffffffffffffffffffff1673ffffffffffffffffffffffffffffffffffffffff16815260200190815260200160002060006101000a81548160ff0219169083151502179055508173ffffffffffffffffffffffffffffffffffffffff16610a16610d89565b73ffffffffffffffffffffffffffffffffffffffff167f17307eab39ab6107e8899845ad3d59bd9653f200f220920489ca2b5937696c3183604051610a5b9190612437565b60405180910390a35050565b600060036000838152602001908152602001600020549050919050565b60066020528060005260406000206000915054906101000a900473ffffffffffffffffffffffffffffffffffffffff1681565b6000600160008473ffffffffffffffffffffffffffffffffffffffff1673ffffffffffffffffffffffffffffffffffffffff16815260200190815260200160002060008373ffffffffffffffffffffffffffffffffffffffff1673ffffffffffffffffffffffffffffffffffffffff16815260200190815260200160002060009054906101000a900460ff16905092915050565b803373ffffffffffffffffffffffffffffffffffffffff166006600083815260200190815260200160002060009054906101000a900473ffffffffffffffffffffffffffffffffffffffff1673ffffffffffffffffffffffffffffffffffffffff1614610bed576040517f08c379a0000000000000000000000000000000000000000000000000000000008152600401610be490612564565b60405180910390fd5b610c0833838560405180602001604052806000815250610ccd565b505050565b6000610c196004610cbf565b905090565b610c26610d89565b73ffffffffffffffffffffffffffffffffffffffff168573ffffffffffffffffffffffffffffffffffffffff161480610c6c5750610c6b85610c66610d89565b610ab7565b5b610cab576040517f08c379a0000000000000000000000000000000000000000000000000000000008152600401610ca290612504565b60405180910390fd5b610cb885858585856110f1565b5050505050565b600081600001549050919050565b610cd984848484611373565b81600360008581526020019081526020016000206000828254610cfc91906127b8565b9250508190555050505050565b6001816000016000828254019250508190555050565b60007f01ffc9a7000000000000000000000000000000000000000000000000000000007bffffffffffffffffffffffffffffffffffffffffffffffffffffffff1916827bffffffffffffffffffffffffffffffffffffffffffffffffffffffff1916149050919050565b600033905090565b8151835114610dd5576040517f08c379a0000000000000000000000000000000000000000000000000000000008152600401610dcc906125e4565b60405180910390fd5b600073ffffffffffffffffffffffffffffffffffffffff168473ffffffffffffffffffffffffffffffffffffffff161415610e45576040517f08c379a0000000000000000000000000000000000000000000000000000000008152600401610e3c90612524565b60405180910390fd5b6000610e4f610d89565b9050610e5f818787878787611509565b60005b845181101561105c576000858281518110610ea6577f4e487b7100000000000000000000000000000000000000000000000000000000600052603260045260246000fd5b602002602001015190506000858381518110610eeb577f4e487b7100000000000000000000000000000000000000000000000000000000600052603260045260246000fd5b60200260200101519050600080600084815260200190815260200160002060008b73ffffffffffffffffffffffffffffffffffffffff1673ffffffffffffffffffffffffffffffffffffffff16815260200190815260200160002054905081811015610f8c576040517f08c379a0000000000000000000000000000000000000000000000000000000008152600401610f8390612584565b60405180910390fd5b81810360008085815260200190815260200160002060008c73ffffffffffffffffffffffffffffffffffffffff1673ffffffffffffffffffffffffffffffffffffffff168152602001908152602001600020819055508160008085815260200190815260200160002060008b73ffffffffffffffffffffffffffffffffffffffff1673ffffffffffffffffffffffffffffffffffffffff168152602001908152602001600020600082825461104191906127b8565b925050819055505050508061105590612927565b9050610e62565b508473ffffffffffffffffffffffffffffffffffffffff168673ffffffffffffffffffffffffffffffffffffffff168273ffffffffffffffffffffffffffffffffffffffff167f4a39dc06d4c0dbc64b70af90fd698a233a518aa5d07e595d983b8c0526c8f7fb87876040516110d3929190612400565b60405180910390a46110e9818787878787611511565b505050505050565b600073ffffffffffffffffffffffffffffffffffffffff168473ffffffffffffffffffffffffffffffffffffffff161415611161576040517f08c379a000000000000000000000000000000000000000000000000000000000815260040161115890612524565b60405180910390fd5b600061116b610d89565b905061118b81878761117c886116f8565b611185886116f8565b87611509565b600080600086815260200190815260200160002060008873ffffffffffffffffffffffffffffffffffffffff1673ffffffffffffffffffffffffffffffffffffffff16815260200190815260200160002054905083811015611222576040517f08c379a000000000000000000000000000000000000000000000000000000000815260040161121990612584565b60405180910390fd5b83810360008087815260200190815260200160002060008973ffffffffffffffffffffffffffffffffffffffff1673ffffffffffffffffffffffffffffffffffffffff168152602001908152602001600020819055508360008087815260200190815260200160002060008873ffffffffffffffffffffffffffffffffffffffff1673ffffffffffffffffffffffffffffffffffffffff16815260200190815260200160002060008282546112d791906127b8565b925050819055508573ffffffffffffffffffffffffffffffffffffffff168773ffffffffffffffffffffffffffffffffffffffff168373ffffffffffffffffffffffffffffffffffffffff167fc3d58168c5ae7397731d063d5bbf3d657854427343f4c083240f7aacaa2d0f62888860405161135492919061263f565b60405180910390a461136a8288888888886117be565b50505050505050565b600073ffffffffffffffffffffffffffffffffffffffff168473ffffffffffffffffffffffffffffffffffffffff1614156113e3576040517f08c379a00000000000000000000000000000000000000000000000000000000081526004016113da90612604565b60405180910390fd5b60006113ed610d89565b905061140e816000876113ff886116f8565b611408886116f8565b87611509565b8260008086815260200190815260200160002060008773ffffffffffffffffffffffffffffffffffffffff1673ffffffffffffffffffffffffffffffffffffffff168152602001908152602001600020600082825461146d91906127b8565b925050819055508473ffffffffffffffffffffffffffffffffffffffff16600073ffffffffffffffffffffffffffffffffffffffff168273ffffffffffffffffffffffffffffffffffffffff167fc3d58168c5ae7397731d063d5bbf3d657854427343f4c083240f7aacaa2d0f6287876040516114eb92919061263f565b60405180910390a4611502816000878787876117be565b5050505050565b505050505050565b6115308473ffffffffffffffffffffffffffffffffffffffff166119a5565b156116f0578373ffffffffffffffffffffffffffffffffffffffff1663bc197c8187878686866040518663ffffffff1660e01b815260040161157695949392919061231c565b602060405180830381600087803b15801561159057600080fd5b505af19250505080156115c157506040513d601f19601f820116820180604052508101906115be9190611f57565b60015b611667576115cd6129fd565b806308c379a0141561162a57506115e2612dcb565b806115ed575061162c565b806040517f08c379a00000000000000000000000000000000000000000000000000000000081526004016116219190612452565b60405180910390fd5b505b6040517f08c379a000000000000000000000000000000000000000000000000000000000815260040161165e906124a4565b60405180910390fd5b63bc197c8160e01b7bffffffffffffffffffffffffffffffffffffffffffffffffffffffff1916817bffffffffffffffffffffffffffffffffffffffffffffffffffffffff1916146116ee576040517f08c379a00000000000000000000000000000000000000000000000000000000081526004016116e5906124c4565b60405180910390fd5b505b505050505050565b60606000600167ffffffffffffffff81111561173d577f4e487b7100000000000000000000000000000000000000000000000000000000600052604160045260246000fd5b60405190808252806020026020018201604052801561176b5781602001602082028036833780820191505090505b50905082816000815181106117a9577f4e487b7100000000000000000000000000000000000000000000000000000000600052603260045260246000fd5b60200260200101818152505080915050919050565b6117dd8473ffffffffffffffffffffffffffffffffffffffff166119a5565b1561199d578373ffffffffffffffffffffffffffffffffffffffff1663f23a6e6187878686866040518663ffffffff1660e01b8152600401611823959493929190612384565b602060405180830381600087803b15801561183d57600080fd5b505af192505050801561186e57506040513d601f19601f8201168201806040525081019061186b9190611f57565b60015b6119145761187a6129fd565b806308c379a014156118d7575061188f612dcb565b8061189a57506118d9565b806040517f08c379a00000000000000000000000000000000000000000000000000000000081526004016118ce9190612452565b60405180910390fd5b505b6040517f08c379a000000000000000000000000000000000000000000000000000000000815260040161190b906124a4565b60405180910390fd5b63f23a6e6160e01b7bffffffffffffffffffffffffffffffffffffffffffffffffffffffff1916817bffffffffffffffffffffffffffffffffffffffffffffffffffffffff19161461199b576040517f08c379a0000000000000000000000000000000000000000000000000000000008152600401611992906124c4565b60405180910390fd5b505b505050505050565b600080823b905060008111915050919050565b8280546119c4906128c4565b90600052602060002090601f0160209004810192826119e65760008555611a2d565b82601f106119ff57805160ff1916838001178555611a2d565b82800160010185558215611a2d579182015b82811115611a2c578251825591602001919060010190611a11565b5b509050611a3a9190611a3e565b5090565b5b80821115611a57576000816000905550600101611a3f565b5090565b6000611a6e611a698461268d565b612668565b90508083825260208201905082856020860282011115611a8d57600080fd5b60005b85811015611abd5781611aa38882611baf565b845260208401935060208301925050600181019050611a90565b5050509392505050565b6000611ada611ad5846126b9565b612668565b90508083825260208201905082856020860282011115611af957600080fd5b60005b85811015611b295781611b0f8882611cab565b845260208401935060208301925050600181019050611afc565b5050509392505050565b6000611b46611b41846126e5565b612668565b905082815260208101848484011115611b5e57600080fd5b611b69848285612882565b509392505050565b6000611b84611b7f84612716565b612668565b905082815260208101848484011115611b9c57600080fd5b611ba7848285612882565b509392505050565b600081359050611bbe81612e61565b92915050565b600082601f830112611bd557600080fd5b8135611be5848260208601611a5b565b91505092915050565b600082601f830112611bff57600080fd5b8135611c0f848260208601611ac7565b91505092915050565b600081359050611c2781612e78565b92915050565b600081359050611c3c81612e8f565b92915050565b600081519050611c5181612e8f565b92915050565b600082601f830112611c6857600080fd5b8135611c78848260208601611b33565b91505092915050565b600082601f830112611c9257600080fd5b8135611ca2848260208601611b71565b91505092915050565b600081359050611cba81612ea6565b92915050565b60008060408385031215611cd357600080fd5b6000611ce185828601611baf565b9250506020611cf285828601611baf565b9150509250929050565b600080600080600060a08688031215611d1457600080fd5b6000611d2288828901611baf565b9550506020611d3388828901611baf565b945050604086013567ffffffffffffffff811115611d5057600080fd5b611d5c88828901611bee565b935050606086013567ffffffffffffffff811115611d7957600080fd5b611d8588828901611bee565b925050608086013567ffffffffffffffff811115611da257600080fd5b611dae88828901611c57565b9150509295509295909350565b600080600080600060a08688031215611dd357600080fd5b6000611de188828901611baf565b9550506020611df288828901611baf565b9450506040611e0388828901611cab565b9350506060611e1488828901611cab565b925050608086013567ffffffffffffffff811115611e3157600080fd5b611e3d88828901611c57565b9150509295509295909350565b60008060408385031215611e5d57600080fd5b6000611e6b85828601611baf565b9250506020611e7c85828601611c18565b9150509250929050565b60008060408385031215611e9957600080fd5b6000611ea785828601611baf565b9250506020611eb885828601611cab565b9150509250929050565b60008060408385031215611ed557600080fd5b600083013567ffffffffffffffff811115611eef57600080fd5b611efb85828601611bc4565b925050602083013567ffffffffffffffff811115611f1857600080fd5b611f2485828601611bee565b9150509250929050565b600060208284031215611f4057600080fd5b6000611f4e84828501611c2d565b91505092915050565b600060208284031215611f6957600080fd5b6000611f7784828501611c42565b91505092915050565b600060208284031215611f9257600080fd5b6000611fa084828501611cab565b91505092915050565b60008060408385031215611fbc57600080fd5b6000611fca85828601611cab565b925050602083013567ffffffffffffffff811115611fe757600080fd5b611ff385828601611c81565b9150509250929050565b6000806040838503121561201057600080fd5b600061201e85828601611cab565b925050602061202f85828601611cab565b9150509250929050565b600061204583836122e3565b60208301905092915050565b61205a8161280e565b82525050565b600061206b82612757565b6120758185612785565b935061208083612747565b8060005b838110156120b15781516120988882612039565b97506120a383612778565b925050600181019050612084565b5085935050505092915050565b6120c781612820565b82525050565b60006120d882612762565b6120e28185612796565b93506120f2818560208601612891565b6120fb81612a1f565b840191505092915050565b60006121118261276d565b61211b81856127a7565b935061212b818560208601612891565b61213481612a1f565b840191505092915050565b600061214c6034836127a7565b915061215782612a3d565b604082019050919050565b600061216f6028836127a7565b915061217a82612a8c565b604082019050919050565b6000612192602b836127a7565b915061219d82612adb565b604082019050919050565b60006121b56029836127a7565b91506121c082612b2a565b604082019050919050565b60006121d86025836127a7565b91506121e382612b79565b604082019050919050565b60006121fb6032836127a7565b915061220682612bc8565b604082019050919050565b600061221e6015836127a7565b915061222982612c17565b602082019050919050565b6000612241602a836127a7565b915061224c82612c40565b604082019050919050565b60006122646029836127a7565b915061226f82612c8f565b604082019050919050565b60006122876029836127a7565b915061229282612cde565b604082019050919050565b60006122aa6028836127a7565b91506122b582612d2d565b604082019050919050565b60006122cd6021836127a7565b91506122d882612d7c565b604082019050919050565b6122ec81612878565b82525050565b6122fb81612878565b82525050565b60006020820190506123166000830184612051565b92915050565b600060a0820190506123316000830188612051565b61233e6020830187612051565b81810360408301526123508186612060565b905081810360608301526123648185612060565b9050818103608083015261237881846120cd565b90509695505050505050565b600060a0820190506123996000830188612051565b6123a66020830187612051565b6123b360408301866122f2565b6123c060608301856122f2565b81810360808301526123d281846120cd565b90509695505050505050565b600060208201905081810360008301526123f88184612060565b905092915050565b6000604082019050818103600083015261241a8185612060565b9050818103602083015261242e8184612060565b90509392505050565b600060208201905061244c60008301846120be565b92915050565b6000602082019050818103600083015261246c8184612106565b905092915050565b6000604082019050818103600083015261248e8185612106565b905061249d60208301846122f2565b9392505050565b600060208201905081810360008301526124bd8161213f565b9050919050565b600060208201905081810360008301526124dd81612162565b9050919050565b600060208201905081810360008301526124fd81612185565b9050919050565b6000602082019050818103600083015261251d816121a8565b9050919050565b6000602082019050818103600083015261253d816121cb565b9050919050565b6000602082019050818103600083015261255d816121ee565b9050919050565b6000602082019050818103600083015261257d81612211565b9050919050565b6000602082019050818103600083015261259d81612234565b9050919050565b600060208201905081810360008301526125bd81612257565b9050919050565b600060208201905081810360008301526125dd8161227a565b9050919050565b600060208201905081810360008301526125fd8161229d565b9050919050565b6000602082019050818103600083015261261d816122c0565b9050919050565b600060208201905061263960008301846122f2565b92915050565b600060408201905061265460008301856122f2565b61266160208301846122f2565b9392505050565b6000612672612683565b905061267e82826128f6565b919050565b6000604051905090565b600067ffffffffffffffff8211156126a8576126a76129ce565b5b602082029050602081019050919050565b600067ffffffffffffffff8211156126d4576126d36129ce565b5b602082029050602081019050919050565b600067ffffffffffffffff821115612700576126ff6129ce565b5b61270982612a1f565b9050602081019050919050565b600067ffffffffffffffff821115612731576127306129ce565b5b61273a82612a1f565b9050602081019050919050565b6000819050602082019050919050565b600081519050919050565b600081519050919050565b600081519050919050565b6000602082019050919050565b600082825260208201905092915050565b600082825260208201905092915050565b600082825260208201905092915050565b60006127c382612878565b91506127ce83612878565b9250827fffffffffffffffffffffffffffffffffffffffffffffffffffffffffffffffff0382111561280357612802612970565b5b828201905092915050565b600061281982612858565b9050919050565b60008115159050919050565b60007fffffffff0000000000000000000000000000000000000000000000000000000082169050919050565b600073ffffffffffffffffffffffffffffffffffffffff82169050919050565b6000819050919050565b82818337600083830152505050565b60005b838110156128af578082015181840152602081019050612894565b838111156128be576000848401525b50505050565b600060028204905060018216806128dc57607f821691505b602082108114156128f0576128ef61299f565b5b50919050565b6128ff82612a1f565b810181811067ffffffffffffffff8211171561291e5761291d6129ce565b5b80604052505050565b600061293282612878565b91507fffffffffffffffffffffffffffffffffffffffffffffffffffffffffffffffff82141561296557612964612970565b5b600182019050919050565b7f4e487b7100000000000000000000000000000000000000000000000000000000600052601160045260246000fd5b7f4e487b7100000000000000000000000000000000000000000000000000000000600052602260045260246000fd5b7f4e487b7100000000000000000000000000000000000000000000000000000000600052604160045260246000fd5b600060033d1115612a1c5760046000803e612a19600051612a30565b90505b90565b6000601f19601f8301169050919050565b60008160e01c9050919050565b7f455243313135353a207472616e7366657220746f206e6f6e204552433131353560008201527f526563656976657220696d706c656d656e746572000000000000000000000000602082015250565b7f455243313135353a204552433131353552656365697665722072656a6563746560008201527f6420746f6b656e73000000000000000000000000000000000000000000000000602082015250565b7f455243313135353a2062616c616e636520717565727920666f7220746865207a60008201527f65726f2061646472657373000000000000000000000000000000000000000000602082015250565b7f455243313135353a2063616c6c6572206973206e6f74206f776e6572206e6f7260008201527f20617070726f7665640000000000000000000000000000000000000000000000602082015250565b7f455243313135353a207472616e7366657220746f20746865207a65726f20616460008201527f6472657373000000000000000000000000000000000000000000000000000000602082015250565b7f455243313135353a207472616e736665722063616c6c6572206973206e6f742060008201527f6f776e6572206e6f7220617070726f7665640000000000000000000000000000602082015250565b7f7265737472696374656420746f2063726561746f720000000000000000000000600082015250565b7f455243313135353a20696e73756666696369656e742062616c616e636520666f60008201527f72207472616e7366657200000000000000000000000000000000000000000000602082015250565b7f455243313135353a2073657474696e6720617070726f76616c2073746174757360008201527f20666f722073656c660000000000000000000000000000000000000000000000602082015250565b7f455243313135353a206163636f756e747320616e6420696473206c656e67746860008201527f206d69736d617463680000000000000000000000000000000000000000000000602082015250565b7f455243313135353a2069647320616e6420616d6f756e7473206c656e6774682060008201527f6d69736d61746368000000000000000000000000000000000000000000000000602082015250565b7f455243313135353a206d696e7420746f20746865207a65726f2061646472657360008201527f7300000000000000000000000000000000000000000000000000000000000000602082015250565b600060443d1015612ddb57612e5e565b612de3612683565b60043d036004823e80513d602482011167ffffffffffffffff82111715612e0b575050612e5e565b808201805167ffffffffffffffff811115612e295750505050612e5e565b80602083010160043d038501811115612e46575050505050612e5e565b612e55826020018501866128f6565b82955050505050505b90565b612e6a8161280e565b8114612e7557600080fd5b50565b612e8181612820565b8114612e8c57600080fd5b50565b612e988161282c565b8114612ea357600080fd5b50565b612eaf81612878565b8114612eba57600080fd5b5056fea2646970667358221220adf7c903f4917bcfebf55e3e242d5da4e74c12648602e5d1ac37d7f6832e4a8164736f6c63430008040033",
  "linkReferences": {},
  "deployedLinkReferences": {}
}